{
  "_format": "hh-sol-artifact-1",
  "contractName": "Transactions",
  "sourceName": "contracts/Transactions.sol",
  "abi": [
    {
      "anonymous": false,
      "inputs": [
        {
          "indexed": false,
          "internalType": "address",
          "name": "from",
          "type": "address"
        },
        {
          "indexed": false,
          "internalType": "address",
          "name": "to",
          "type": "address"
        },
        {
          "indexed": false,
          "internalType": "uint256",
          "name": "amount",
          "type": "uint256"
        },
        {
          "indexed": false,
          "internalType": "string",
          "name": "message",
          "type": "string"
        },
        {
          "indexed": false,
          "internalType": "uint256",
          "name": "timestamp",
          "type": "uint256"
        },
        {
          "indexed": false,
          "internalType": "string",
          "name": "keyword",
          "type": "string"
        }
      ],
      "name": "Transfer",
      "type": "event"
    },
    {
      "inputs": [
        {
          "internalType": "address payable",
          "name": "receiver",
          "type": "address"
        },
        {
          "internalType": "uint256",
          "name": "amount",
          "type": "uint256"
        },
        {
          "internalType": "string",
          "name": "message",
          "type": "string"
        },
        {
          "internalType": "string",
          "name": "keyword",
          "type": "string"
        }
      ],
      "name": "addToBlockchain",
      "outputs": [],
      "stateMutability": "nonpayable",
      "type": "function"
    },
    {
      "inputs": [],
      "name": "getAllTransactions",
      "outputs": [
        {
          "components": [
            {
              "internalType": "address",
              "name": "sender",
              "type": "address"
            },
            {
              "internalType": "address",
              "name": "receiver",
              "type": "address"
            },
            {
              "internalType": "uint256",
              "name": "amount",
              "type": "uint256"
            },
            {
              "internalType": "string",
              "name": "message",
              "type": "string"
            },
            {
              "internalType": "uint256",
              "name": "timestamp",
              "type": "uint256"
            },
            {
              "internalType": "string",
              "name": "keyword",
              "type": "string"
            }
          ],
          "internalType": "struct Transactions.TransferStruct[]",
          "name": "",
          "type": "tuple[]"
        }
      ],
      "stateMutability": "view",
      "type": "function"
    },
    {
      "inputs": [],
      "name": "getTransactionCount",
      "outputs": [
        {
          "internalType": "uint256",
          "name": "",
          "type": "uint256"
        }
      ],
      "stateMutability": "view",
      "type": "function"
    },
    {
      "inputs": [
        {
          "internalType": "address payable",
          "name": "_receiver",
          "type": "address"
        },
        {
          "internalType": "uint256",
          "name": "_amount",
          "type": "uint256"
        },
        {
          "internalType": "string",
          "name": "_message",
          "type": "string"
        },
        {
          "internalType": "string",
          "name": "_keyword",
          "type": "string"
        }
      ],
      "name": "transferEther",
      "outputs": [],
      "stateMutability": "nonpayable",
      "type": "function"
    }
  ],
  "bytecode": "0x608060405234801561001057600080fd5b506001600081905550610e9d806100286000396000f3fe608060405234801561001057600080fd5b506004361061004c5760003560e01c806327506f53146100515780632e7700f01461006f5780639c5c81731461008d578063cc2d7ead146100a9575b600080fd5b6100596100c5565b6040516100669190610afe565b60405180910390f35b610077610308565b6040516100849190610b60565b60405180910390f35b6100a760048036038101906100a29190610777565b610312565b005b6100c360048036038101906100be9190610777565b610480565b005b60606002805480602002602001604051908101604052809291908181526020016000905b828210156102ff57838290600052602060002090600602016040518060c00160405290816000820160009054906101000a900473ffffffffffffffffffffffffffffffffffffffff1673ffffffffffffffffffffffffffffffffffffffff1673ffffffffffffffffffffffffffffffffffffffff1681526020016001820160009054906101000a900473ffffffffffffffffffffffffffffffffffffffff1673ffffffffffffffffffffffffffffffffffffffff1673ffffffffffffffffffffffffffffffffffffffff168152602001600282015481526020016003820180546101d290610d69565b80601f01602080910402602001604051908101604052809291908181526020018280546101fe90610d69565b801561024b5780601f106102205761010080835404028352916020019161024b565b820191906000526020600020905b81548152906001019060200180831161022e57829003601f168201915b505050505081526020016004820154815260200160058201805461026e90610d69565b80601f016020809104026020016040519081016040528092919081815260200182805461029a90610d69565b80156102e75780601f106102bc576101008083540402835291602001916102e7565b820191906000526020600020905b8154815290600101906020018083116102ca57829003601f168201915b505050505081525050815260200190600101906100e9565b50505050905090565b6000600154905090565b60026000541415610358576040517f08c379a000000000000000000000000000000000000000000000000000000000815260040161034f90610b40565b60405180910390fd5b6002600081905550823373ffffffffffffffffffffffffffffffffffffffff1631101561038457600080fd5b60008473ffffffffffffffffffffffffffffffffffffffff16846040516103aa90610a7a565b60006040518083038185875af1925050503d80600081146103e7576040519150601f19603f3d011682016040523d82523d6000602084013e6103ec565b606091505b5050905080610430576040517f08c379a000000000000000000000000000000000000000000000000000000000815260040161042790610b20565b60405180910390fd5b7f416cfa4330a4565f45c2fd2dd4826a83a37443aba2ce6f79477c7355afac35fa33868686428760405161046996959493929190610a8f565b60405180910390a150600160008190555050505050565b60018060008282546104929190610c4d565b9250508190555060026040518060c001604052803373ffffffffffffffffffffffffffffffffffffffff1681526020018673ffffffffffffffffffffffffffffffffffffffff16815260200185815260200184815260200142815260200183815250908060018154018082558091505060019003906000526020600020906006020160009091909190915060008201518160000160006101000a81548173ffffffffffffffffffffffffffffffffffffffff021916908373ffffffffffffffffffffffffffffffffffffffff16021790555060208201518160010160006101000a81548173ffffffffffffffffffffffffffffffffffffffff021916908373ffffffffffffffffffffffffffffffffffffffff1602179055506040820151816002015560608201518160030190805190602001906105d1929190610642565b506080820151816004015560a08201518160050190805190602001906105f8929190610642565b5050507f416cfa4330a4565f45c2fd2dd4826a83a37443aba2ce6f79477c7355afac35fa33858585428660405161063496959493929190610a8f565b60405180910390a150505050565b82805461064e90610d69565b90600052602060002090601f01602090048101928261067057600085556106b7565b82601f1061068957805160ff19168380011785556106b7565b828001600101855582156106b7579182015b828111156106b657825182559160200191906001019061069b565b5b5090506106c491906106c8565b5090565b5b808211156106e15760008160009055506001016106c9565b5090565b60006106f86106f384610bac565b610b7b565b90508281526020810184848401111561071057600080fd5b61071b848285610d27565b509392505050565b60008135905061073281610e39565b92915050565b600082601f83011261074957600080fd5b81356107598482602086016106e5565b91505092915050565b60008135905061077181610e50565b92915050565b6000806000806080858703121561078d57600080fd5b600061079b87828801610723565b94505060206107ac87828801610762565b935050604085013567ffffffffffffffff8111156107c957600080fd5b6107d587828801610738565b925050606085013567ffffffffffffffff8111156107f257600080fd5b6107fe87828801610738565b91505092959194509250565b600061081683836109cc565b905092915050565b61082781610cf1565b82525050565b61083681610ca3565b82525050565b61084581610ca3565b82525050565b600061085682610bec565b6108608185610c0f565b93508360208202850161087285610bdc565b8060005b858110156108ae578484038952815161088f858261080a565b945061089a83610c02565b925060208a01995050600181019050610876565b50829750879550505050505092915050565b60006108cb82610bf7565b6108d58185610c2b565b93506108e5818560208601610d36565b6108ee81610e28565b840191505092915050565b600061090482610bf7565b61090e8185610c3c565b935061091e818560208601610d36565b61092781610e28565b840191505092915050565b600061093f601383610c3c565b91507f5472616e73616374696f6e206661696c656421000000000000000000000000006000830152602082019050919050565b600061097f600083610c20565b9150600082019050919050565b6000610999601f83610c3c565b91507f5265656e7472616e637947756172643a207265656e7472616e742063616c6c006000830152602082019050919050565b600060c0830160008301516109e4600086018261082d565b5060208301516109f7602086018261082d565b506040830151610a0a6040860182610a5c565b5060608301518482036060860152610a2282826108c0565b9150506080830151610a376080860182610a5c565b5060a083015184820360a0860152610a4f82826108c0565b9150508091505092915050565b610a6581610ce7565b82525050565b610a7481610ce7565b82525050565b6000610a8582610972565b9150819050919050565b600060c082019050610aa4600083018961083c565b610ab1602083018861081e565b610abe6040830187610a6b565b8181036060830152610ad081866108f9565b9050610adf6080830185610a6b565b81810360a0830152610af181846108f9565b9050979650505050505050565b60006020820190508181036000830152610b18818461084b565b905092915050565b60006020820190508181036000830152610b3981610932565b9050919050565b60006020820190508181036000830152610b598161098c565b9050919050565b6000602082019050610b756000830184610a6b565b92915050565b6000604051905081810181811067ffffffffffffffff82111715610ba257610ba1610df9565b5b8060405250919050565b600067ffffffffffffffff821115610bc757610bc6610df9565b5b601f19601f8301169050602081019050919050565b6000819050602082019050919050565b600081519050919050565b600081519050919050565b6000602082019050919050565b600082825260208201905092915050565b600081905092915050565b600082825260208201905092915050565b600082825260208201905092915050565b6000610c5882610ce7565b9150610c6383610ce7565b9250827fffffffffffffffffffffffffffffffffffffffffffffffffffffffffffffffff03821115610c9857610c97610d9b565b5b828201905092915050565b6000610cae82610cc7565b9050919050565b6000610cc082610cc7565b9050919050565b600073ffffffffffffffffffffffffffffffffffffffff82169050919050565b6000819050919050565b6000610cfc82610d03565b9050919050565b6000610d0e82610d15565b9050919050565b6000610d2082610cc7565b9050919050565b82818337600083830152505050565b60005b83811015610d54578082015181840152602081019050610d39565b83811115610d63576000848401525b50505050565b60006002820490506001821680610d8157607f821691505b60208210811415610d9557610d94610dca565b5b50919050565b7f4e487b7100000000000000000000000000000000000000000000000000000000600052601160045260246000fd5b7f4e487b7100000000000000000000000000000000000000000000000000000000600052602260045260246000fd5b7f4e487b7100000000000000000000000000000000000000000000000000000000600052604160045260246000fd5b6000601f19601f8301169050919050565b610e4281610cb5565b8114610e4d57600080fd5b50565b610e5981610ce7565b8114610e6457600080fd5b5056fea264697066735822122051ebd35f53927f848dc6aa80b54f31c36b3ea8a401ea4b8dbadc489f9a9ab09c64736f6c63430008000033",
  "linkReferences": {},
  "deployedLinkReferences": {}
}