{
  "_format": "hh-sol-artifact-1",
  "contractName": "Transactions",
  "sourceName": "contracts/Transactions.sol",
  "abi": [
    {
      "anonymous": false,
      "inputs": [
        {
          "indexed": false,
          "internalType": "address",
          "name": "from",
          "type": "address"
        },
        {
          "indexed": false,
          "internalType": "address",
          "name": "to",
          "type": "address"
        },
        {
          "indexed": false,
          "internalType": "uint256",
          "name": "amount",
          "type": "uint256"
        },
        {
          "indexed": false,
          "internalType": "string",
          "name": "message",
          "type": "string"
        },
        {
          "indexed": false,
          "internalType": "uint256",
          "name": "timestamp",
          "type": "uint256"
        },
        {
          "indexed": false,
          "internalType": "string",
          "name": "keyword",
          "type": "string"
        }
      ],
      "name": "Transfer",
      "type": "event"
    },
    {
      "inputs": [
        {
          "internalType": "address payable",
          "name": "receiver",
          "type": "address"
        },
        {
          "internalType": "uint256",
          "name": "amount",
          "type": "uint256"
        },
        {
          "internalType": "string",
          "name": "message",
          "type": "string"
        },
        {
          "internalType": "string",
          "name": "keyword",
          "type": "string"
        }
      ],
      "name": "addToBlockchain",
      "outputs": [],
      "stateMutability": "nonpayable",
      "type": "function"
    },
    {
      "inputs": [],
      "name": "getAllTransactions",
      "outputs": [
        {
          "components": [
            {
              "internalType": "address",
              "name": "sender",
              "type": "address"
            },
            {
              "internalType": "address",
              "name": "receiver",
              "type": "address"
            },
            {
              "internalType": "uint256",
              "name": "amount",
              "type": "uint256"
            },
            {
              "internalType": "string",
              "name": "message",
              "type": "string"
            },
            {
              "internalType": "uint256",
              "name": "timestamp",
              "type": "uint256"
            },
            {
              "internalType": "string",
              "name": "keyword",
              "type": "string"
            }
          ],
          "internalType": "struct Transactions.TransferStruct[]",
          "name": "",
          "type": "tuple[]"
        }
      ],
      "stateMutability": "view",
      "type": "function"
    },
    {
      "inputs": [],
      "name": "getTransactionCount",
      "outputs": [
        {
          "internalType": "uint256",
          "name": "",
          "type": "uint256"
        }
      ],
      "stateMutability": "view",
      "type": "function"
    },
    {
      "inputs": [
        {
          "internalType": "address payable",
          "name": "_receiver",
          "type": "address"
        },
        {
          "internalType": "string",
          "name": "_message",
          "type": "string"
        },
        {
          "internalType": "string",
          "name": "_keyword",
          "type": "string"
        }
      ],
      "name": "transferEther",
      "outputs": [],
      "stateMutability": "payable",
      "type": "function"
    }
  ],
  "bytecode": "0x608060405234801561001057600080fd5b506001600081905550611146806100286000396000f3fe60806040526004361061003f5760003560e01c806327506f53146100445780632e7700f01461006f57806347d26a491461009a578063cc2d7ead146100b6575b600080fd5b34801561005057600080fd5b506100596100df565b6040516100669190610d87565b60405180910390f35b34801561007b57600080fd5b50610084610322565b6040516100919190610e09565b60405180910390f35b6100b460048036038101906100af9190610941565b61032c565b005b3480156100c257600080fd5b506100dd60048036038101906100d891906109c0565b61064a565b005b60606002805480602002602001604051908101604052809291908181526020016000905b8282101561031957838290600052602060002090600602016040518060c00160405290816000820160009054906101000a900473ffffffffffffffffffffffffffffffffffffffff1673ffffffffffffffffffffffffffffffffffffffff1673ffffffffffffffffffffffffffffffffffffffff1681526020016001820160009054906101000a900473ffffffffffffffffffffffffffffffffffffffff1673ffffffffffffffffffffffffffffffffffffffff1673ffffffffffffffffffffffffffffffffffffffff168152602001600282015481526020016003820180546101ec90611012565b80601f016020809104026020016040519081016040528092919081815260200182805461021890611012565b80156102655780601f1061023a57610100808354040283529160200191610265565b820191906000526020600020905b81548152906001019060200180831161024857829003601f168201915b505050505081526020016004820154815260200160058201805461028890611012565b80601f01602080910402602001604051908101604052809291908181526020018280546102b490611012565b80156103015780601f106102d657610100808354040283529160200191610301565b820191906000526020600020905b8154815290600101906020018083116102e457829003601f168201915b50505050508152505081526020019060010190610103565b50505050905090565b6000600154905090565b60026000541415610372576040517f08c379a000000000000000000000000000000000000000000000000000000000815260040161036990610de9565b60405180910390fd5b6002600081905550343373ffffffffffffffffffffffffffffffffffffffff163110156103d4576040517f08c379a00000000000000000000000000000000000000000000000000000000081526004016103cb90610dc9565b60405180910390fd5b60008373ffffffffffffffffffffffffffffffffffffffff16346040516103fa90610d03565b60006040518083038185875af1925050503d8060008114610437576040519150601f19603f3d011682016040523d82523d6000602084013e61043c565b606091505b5050905080610480576040517f08c379a000000000000000000000000000000000000000000000000000000000815260040161047790610da9565b60405180910390fd5b60018060008282546104929190610ef6565b9250508190555060026040518060c001604052803373ffffffffffffffffffffffffffffffffffffffff1681526020018673ffffffffffffffffffffffffffffffffffffffff16815260200134815260200185815260200142815260200184815250908060018154018082558091505060019003906000526020600020906006020160009091909190915060008201518160000160006101000a81548173ffffffffffffffffffffffffffffffffffffffff021916908373ffffffffffffffffffffffffffffffffffffffff16021790555060208201518160010160006101000a81548173ffffffffffffffffffffffffffffffffffffffff021916908373ffffffffffffffffffffffffffffffffffffffff1602179055506040820151816002015560608201518160030190805190602001906105d192919061080c565b506080820151816004015560a08201518160050190805190602001906105f892919061080c565b5050507f416cfa4330a4565f45c2fd2dd4826a83a37443aba2ce6f79477c7355afac35fa33853486428760405161063496959493929190610d18565b60405180910390a1506001600081905550505050565b600180600082825461065c9190610ef6565b9250508190555060026040518060c001604052803373ffffffffffffffffffffffffffffffffffffffff1681526020018673ffffffffffffffffffffffffffffffffffffffff16815260200185815260200184815260200142815260200183815250908060018154018082558091505060019003906000526020600020906006020160009091909190915060008201518160000160006101000a81548173ffffffffffffffffffffffffffffffffffffffff021916908373ffffffffffffffffffffffffffffffffffffffff16021790555060208201518160010160006101000a81548173ffffffffffffffffffffffffffffffffffffffff021916908373ffffffffffffffffffffffffffffffffffffffff16021790555060408201518160020155606082015181600301908051906020019061079b92919061080c565b506080820151816004015560a08201518160050190805190602001906107c292919061080c565b5050507f416cfa4330a4565f45c2fd2dd4826a83a37443aba2ce6f79477c7355afac35fa3385858542866040516107fe96959493929190610d18565b60405180910390a150505050565b82805461081890611012565b90600052602060002090601f01602090048101928261083a5760008555610881565b82601f1061085357805160ff1916838001178555610881565b82800160010185558215610881579182015b82811115610880578251825591602001919060010190610865565b5b50905061088e9190610892565b5090565b5b808211156108ab576000816000905550600101610893565b5090565b60006108c26108bd84610e55565b610e24565b9050828152602081018484840111156108da57600080fd5b6108e5848285610fd0565b509392505050565b6000813590506108fc816110e2565b92915050565b600082601f83011261091357600080fd5b81356109238482602086016108af565b91505092915050565b60008135905061093b816110f9565b92915050565b60008060006060848603121561095657600080fd5b6000610964868287016108ed565b935050602084013567ffffffffffffffff81111561098157600080fd5b61098d86828701610902565b925050604084013567ffffffffffffffff8111156109aa57600080fd5b6109b686828701610902565b9150509250925092565b600080600080608085870312156109d657600080fd5b60006109e4878288016108ed565b94505060206109f58782880161092c565b935050604085013567ffffffffffffffff811115610a1257600080fd5b610a1e87828801610902565b925050606085013567ffffffffffffffff811115610a3b57600080fd5b610a4787828801610902565b91505092959194509250565b6000610a5f8383610c55565b905092915050565b610a7081610f9a565b82525050565b610a7f81610f4c565b82525050565b610a8e81610f4c565b82525050565b6000610a9f82610e95565b610aa98185610eb8565b935083602082028501610abb85610e85565b8060005b85811015610af75784840389528151610ad88582610a53565b9450610ae383610eab565b925060208a01995050600181019050610abf565b50829750879550505050505092915050565b6000610b1482610ea0565b610b1e8185610ed4565b9350610b2e818560208601610fdf565b610b37816110d1565b840191505092915050565b6000610b4d82610ea0565b610b578185610ee5565b9350610b67818560208601610fdf565b610b70816110d1565b840191505092915050565b6000610b88601383610ee5565b91507f5472616e73616374696f6e206661696c656421000000000000000000000000006000830152602082019050919050565b6000610bc8601b83610ee5565b91507f4f6b2c20796f7527766520676f7420656e6f756768206d6f6e657900000000006000830152602082019050919050565b6000610c08600083610ec9565b9150600082019050919050565b6000610c22601f83610ee5565b91507f5265656e7472616e637947756172643a207265656e7472616e742063616c6c006000830152602082019050919050565b600060c083016000830151610c6d6000860182610a76565b506020830151610c806020860182610a76565b506040830151610c936040860182610ce5565b5060608301518482036060860152610cab8282610b09565b9150506080830151610cc06080860182610ce5565b5060a083015184820360a0860152610cd88282610b09565b9150508091505092915050565b610cee81610f90565b82525050565b610cfd81610f90565b82525050565b6000610d0e82610bfb565b9150819050919050565b600060c082019050610d2d6000830189610a85565b610d3a6020830188610a67565b610d476040830187610cf4565b8181036060830152610d598186610b42565b9050610d686080830185610cf4565b81810360a0830152610d7a8184610b42565b9050979650505050505050565b60006020820190508181036000830152610da18184610a94565b905092915050565b60006020820190508181036000830152610dc281610b7b565b9050919050565b60006020820190508181036000830152610de281610bbb565b9050919050565b60006020820190508181036000830152610e0281610c15565b9050919050565b6000602082019050610e1e6000830184610cf4565b92915050565b6000604051905081810181811067ffffffffffffffff82111715610e4b57610e4a6110a2565b5b8060405250919050565b600067ffffffffffffffff821115610e7057610e6f6110a2565b5b601f19601f8301169050602081019050919050565b6000819050602082019050919050565b600081519050919050565b600081519050919050565b6000602082019050919050565b600082825260208201905092915050565b600081905092915050565b600082825260208201905092915050565b600082825260208201905092915050565b6000610f0182610f90565b9150610f0c83610f90565b9250827fffffffffffffffffffffffffffffffffffffffffffffffffffffffffffffffff03821115610f4157610f40611044565b5b828201905092915050565b6000610f5782610f70565b9050919050565b6000610f6982610f70565b9050919050565b600073ffffffffffffffffffffffffffffffffffffffff82169050919050565b6000819050919050565b6000610fa582610fac565b9050919050565b6000610fb782610fbe565b9050919050565b6000610fc982610f70565b9050919050565b82818337600083830152505050565b60005b83811015610ffd578082015181840152602081019050610fe2565b8381111561100c576000848401525b50505050565b6000600282049050600182168061102a57607f821691505b6020821081141561103e5761103d611073565b5b50919050565b7f4e487b7100000000000000000000000000000000000000000000000000000000600052601160045260246000fd5b7f4e487b7100000000000000000000000000000000000000000000000000000000600052602260045260246000fd5b7f4e487b7100000000000000000000000000000000000000000000000000000000600052604160045260246000fd5b6000601f19601f8301169050919050565b6110eb81610f5e565b81146110f657600080fd5b50565b61110281610f90565b811461110d57600080fd5b5056fea26469706673582212202973599119bf6f1e8f9b2a995a211c9b1e522c855acb5c55a1d8664c23145fbc64736f6c63430008000033",
  "linkReferences": {},
  "deployedLinkReferences": {}
}