{
  "_format": "hh-sol-artifact-1",
  "contractName": "Transactions",
  "sourceName": "contracts/Transactions.sol",
  "abi": [
    {
      "anonymous": false,
      "inputs": [
        {
          "indexed": false,
          "internalType": "address",
          "name": "from",
          "type": "address"
        },
        {
          "indexed": false,
          "internalType": "address",
          "name": "to",
          "type": "address"
        },
        {
          "indexed": false,
          "internalType": "uint256",
          "name": "amount",
          "type": "uint256"
        },
        {
          "indexed": false,
          "internalType": "string",
          "name": "message",
          "type": "string"
        },
        {
          "indexed": false,
          "internalType": "uint256",
          "name": "timestamp",
          "type": "uint256"
        },
        {
          "indexed": false,
          "internalType": "string",
          "name": "keyword",
          "type": "string"
        }
      ],
      "name": "Transfer",
      "type": "event"
    },
    {
      "inputs": [
        {
          "internalType": "address payable",
          "name": "receiver",
          "type": "address"
        },
        {
          "internalType": "uint256",
          "name": "amount",
          "type": "uint256"
        },
        {
          "internalType": "string",
          "name": "message",
          "type": "string"
        },
        {
          "internalType": "string",
          "name": "keyword",
          "type": "string"
        }
      ],
      "name": "addToBlockchain",
      "outputs": [],
      "stateMutability": "nonpayable",
      "type": "function"
    },
    {
      "inputs": [],
      "name": "getAllTransactions",
      "outputs": [
        {
          "components": [
            {
              "internalType": "address",
              "name": "sender",
              "type": "address"
            },
            {
              "internalType": "address",
              "name": "receiver",
              "type": "address"
            },
            {
              "internalType": "uint256",
              "name": "amount",
              "type": "uint256"
            },
            {
              "internalType": "string",
              "name": "message",
              "type": "string"
            },
            {
              "internalType": "uint256",
              "name": "timestamp",
              "type": "uint256"
            },
            {
              "internalType": "string",
              "name": "keyword",
              "type": "string"
            }
          ],
          "internalType": "struct Transactions.TransferStruct[]",
          "name": "",
          "type": "tuple[]"
        }
      ],
      "stateMutability": "view",
      "type": "function"
    },
    {
      "inputs": [],
      "name": "getTransactionCount",
      "outputs": [
        {
          "internalType": "uint256",
          "name": "",
          "type": "uint256"
        }
      ],
      "stateMutability": "view",
      "type": "function"
    },
    {
      "inputs": [
        {
          "internalType": "address payable",
          "name": "_receiver",
          "type": "address"
        },
        {
          "internalType": "string",
          "name": "_message",
          "type": "string"
        },
        {
          "internalType": "string",
          "name": "_keyword",
          "type": "string"
        }
      ],
      "name": "transferEther",
      "outputs": [],
      "stateMutability": "payable",
      "type": "function"
    }
  ],
  "bytecode": "0x608060405234801561001057600080fd5b506001600081905550610fcb806100286000396000f3fe60806040526004361061003f5760003560e01c806327506f53146100445780632e7700f01461006f57806347d26a491461009a578063cc2d7ead146100b6575b600080fd5b34801561005057600080fd5b506100596100df565b6040516100669190610c0c565b60405180910390f35b34801561007b57600080fd5b50610084610322565b6040516100919190610c8e565b60405180910390f35b6100b460048036038101906100af91906107c6565b61032c565b005b3480156100c257600080fd5b506100dd60048036038101906100d89190610845565b6104cf565b005b60606002805480602002602001604051908101604052809291908181526020016000905b8282101561031957838290600052602060002090600602016040518060c00160405290816000820160009054906101000a900473ffffffffffffffffffffffffffffffffffffffff1673ffffffffffffffffffffffffffffffffffffffff1673ffffffffffffffffffffffffffffffffffffffff1681526020016001820160009054906101000a900473ffffffffffffffffffffffffffffffffffffffff1673ffffffffffffffffffffffffffffffffffffffff1673ffffffffffffffffffffffffffffffffffffffff168152602001600282015481526020016003820180546101ec90610e97565b80601f016020809104026020016040519081016040528092919081815260200182805461021890610e97565b80156102655780601f1061023a57610100808354040283529160200191610265565b820191906000526020600020905b81548152906001019060200180831161024857829003601f168201915b505050505081526020016004820154815260200160058201805461028890610e97565b80601f01602080910402602001604051908101604052809291908181526020018280546102b490610e97565b80156103015780601f106102d657610100808354040283529160200191610301565b820191906000526020600020905b8154815290600101906020018083116102e457829003601f168201915b50505050508152505081526020019060010190610103565b50505050905090565b6000600154905090565b60026000541415610372576040517f08c379a000000000000000000000000000000000000000000000000000000000815260040161036990610c6e565b60405180910390fd5b6002600081905550343373ffffffffffffffffffffffffffffffffffffffff163110156103d4576040517f08c379a00000000000000000000000000000000000000000000000000000000081526004016103cb90610c4e565b60405180910390fd5b60008373ffffffffffffffffffffffffffffffffffffffff16346040516103fa90610b88565b60006040518083038185875af1925050503d8060008114610437576040519150601f19603f3d011682016040523d82523d6000602084013e61043c565b606091505b5050905080610480576040517f08c379a000000000000000000000000000000000000000000000000000000000815260040161047790610c2e565b60405180910390fd5b7f416cfa4330a4565f45c2fd2dd4826a83a37443aba2ce6f79477c7355afac35fa3385348642876040516104b996959493929190610b9d565b60405180910390a1506001600081905550505050565b60018060008282546104e19190610d7b565b9250508190555060026040518060c001604052803373ffffffffffffffffffffffffffffffffffffffff1681526020018673ffffffffffffffffffffffffffffffffffffffff16815260200185815260200184815260200142815260200183815250908060018154018082558091505060019003906000526020600020906006020160009091909190915060008201518160000160006101000a81548173ffffffffffffffffffffffffffffffffffffffff021916908373ffffffffffffffffffffffffffffffffffffffff16021790555060208201518160010160006101000a81548173ffffffffffffffffffffffffffffffffffffffff021916908373ffffffffffffffffffffffffffffffffffffffff160217905550604082015181600201556060820151816003019080519060200190610620929190610691565b506080820151816004015560a0820151816005019080519060200190610647929190610691565b5050507f416cfa4330a4565f45c2fd2dd4826a83a37443aba2ce6f79477c7355afac35fa33858585428660405161068396959493929190610b9d565b60405180910390a150505050565b82805461069d90610e97565b90600052602060002090601f0160209004810192826106bf5760008555610706565b82601f106106d857805160ff1916838001178555610706565b82800160010185558215610706579182015b828111156107055782518255916020019190600101906106ea565b5b5090506107139190610717565b5090565b5b80821115610730576000816000905550600101610718565b5090565b600061074761074284610cda565b610ca9565b90508281526020810184848401111561075f57600080fd5b61076a848285610e55565b509392505050565b60008135905061078181610f67565b92915050565b600082601f83011261079857600080fd5b81356107a8848260208601610734565b91505092915050565b6000813590506107c081610f7e565b92915050565b6000806000606084860312156107db57600080fd5b60006107e986828701610772565b935050602084013567ffffffffffffffff81111561080657600080fd5b61081286828701610787565b925050604084013567ffffffffffffffff81111561082f57600080fd5b61083b86828701610787565b9150509250925092565b6000806000806080858703121561085b57600080fd5b600061086987828801610772565b945050602061087a878288016107b1565b935050604085013567ffffffffffffffff81111561089757600080fd5b6108a387828801610787565b925050606085013567ffffffffffffffff8111156108c057600080fd5b6108cc87828801610787565b91505092959194509250565b60006108e48383610ada565b905092915050565b6108f581610e1f565b82525050565b61090481610dd1565b82525050565b61091381610dd1565b82525050565b600061092482610d1a565b61092e8185610d3d565b93508360208202850161094085610d0a565b8060005b8581101561097c578484038952815161095d85826108d8565b945061096883610d30565b925060208a01995050600181019050610944565b50829750879550505050505092915050565b600061099982610d25565b6109a38185610d59565b93506109b3818560208601610e64565b6109bc81610f56565b840191505092915050565b60006109d282610d25565b6109dc8185610d6a565b93506109ec818560208601610e64565b6109f581610f56565b840191505092915050565b6000610a0d601383610d6a565b91507f5472616e73616374696f6e206661696c656421000000000000000000000000006000830152602082019050919050565b6000610a4d601b83610d6a565b91507f4f6b2c20796f7527766520676f7420656e6f756768206d6f6e657900000000006000830152602082019050919050565b6000610a8d600083610d4e565b9150600082019050919050565b6000610aa7601f83610d6a565b91507f5265656e7472616e637947756172643a207265656e7472616e742063616c6c006000830152602082019050919050565b600060c083016000830151610af260008601826108fb565b506020830151610b0560208601826108fb565b506040830151610b186040860182610b6a565b5060608301518482036060860152610b30828261098e565b9150506080830151610b456080860182610b6a565b5060a083015184820360a0860152610b5d828261098e565b9150508091505092915050565b610b7381610e15565b82525050565b610b8281610e15565b82525050565b6000610b9382610a80565b9150819050919050565b600060c082019050610bb2600083018961090a565b610bbf60208301886108ec565b610bcc6040830187610b79565b8181036060830152610bde81866109c7565b9050610bed6080830185610b79565b81810360a0830152610bff81846109c7565b9050979650505050505050565b60006020820190508181036000830152610c268184610919565b905092915050565b60006020820190508181036000830152610c4781610a00565b9050919050565b60006020820190508181036000830152610c6781610a40565b9050919050565b60006020820190508181036000830152610c8781610a9a565b9050919050565b6000602082019050610ca36000830184610b79565b92915050565b6000604051905081810181811067ffffffffffffffff82111715610cd057610ccf610f27565b5b8060405250919050565b600067ffffffffffffffff821115610cf557610cf4610f27565b5b601f19601f8301169050602081019050919050565b6000819050602082019050919050565b600081519050919050565b600081519050919050565b6000602082019050919050565b600082825260208201905092915050565b600081905092915050565b600082825260208201905092915050565b600082825260208201905092915050565b6000610d8682610e15565b9150610d9183610e15565b9250827fffffffffffffffffffffffffffffffffffffffffffffffffffffffffffffffff03821115610dc657610dc5610ec9565b5b828201905092915050565b6000610ddc82610df5565b9050919050565b6000610dee82610df5565b9050919050565b600073ffffffffffffffffffffffffffffffffffffffff82169050919050565b6000819050919050565b6000610e2a82610e31565b9050919050565b6000610e3c82610e43565b9050919050565b6000610e4e82610df5565b9050919050565b82818337600083830152505050565b60005b83811015610e82578082015181840152602081019050610e67565b83811115610e91576000848401525b50505050565b60006002820490506001821680610eaf57607f821691505b60208210811415610ec357610ec2610ef8565b5b50919050565b7f4e487b7100000000000000000000000000000000000000000000000000000000600052601160045260246000fd5b7f4e487b7100000000000000000000000000000000000000000000000000000000600052602260045260246000fd5b7f4e487b7100000000000000000000000000000000000000000000000000000000600052604160045260246000fd5b6000601f19601f8301169050919050565b610f7081610de3565b8114610f7b57600080fd5b50565b610f8781610e15565b8114610f9257600080fd5b5056fea26469706673582212202a4e8834474af96f010eb8a76f426bd6521edfdc615e057e684ac3f95703b4cd64736f6c63430008000033",
  "linkReferences": {},
  "deployedLinkReferences": {}
}